{
  "contractName": "Ballot",
  "abi": [
    {
      "inputs": [
        {
          "internalType": "bytes32[]",
          "name": "proposalNames",
          "type": "bytes32[]"
        }
      ],
      "payable": false,
      "stateMutability": "nonpayable",
      "type": "constructor"
    },
    {
      "constant": true,
      "inputs": [],
      "name": "chairperson",
      "outputs": [
        {
          "internalType": "address",
          "name": "",
          "type": "address"
        }
      ],
      "payable": false,
      "stateMutability": "view",
      "type": "function"
    },
    {
      "constant": true,
      "inputs": [
        {
          "internalType": "uint256",
          "name": "",
          "type": "uint256"
        }
      ],
      "name": "proposals",
      "outputs": [
        {
          "internalType": "bytes32",
          "name": "name",
          "type": "bytes32"
        },
        {
          "internalType": "uint256",
          "name": "voteCount",
          "type": "uint256"
        }
      ],
      "payable": false,
      "stateMutability": "view",
      "type": "function"
    },
    {
      "constant": true,
      "inputs": [
        {
          "internalType": "address",
          "name": "",
          "type": "address"
        }
      ],
      "name": "voters",
      "outputs": [
        {
          "internalType": "bool",
          "name": "voted",
          "type": "bool"
        },
        {
          "internalType": "uint256",
          "name": "vote",
          "type": "uint256"
        }
      ],
      "payable": false,
      "stateMutability": "view",
      "type": "function"
    },
    {
      "constant": false,
      "inputs": [
        {
          "internalType": "uint256",
          "name": "proposal",
          "type": "uint256"
        }
      ],
      "name": "vote",
      "outputs": [],
      "payable": false,
      "stateMutability": "nonpayable",
      "type": "function"
    },
    {
      "constant": true,
      "inputs": [],
      "name": "winningProposal",
      "outputs": [
        {
          "internalType": "uint256",
          "name": "winningProposal_",
          "type": "uint256"
        }
      ],
      "payable": false,
      "stateMutability": "view",
      "type": "function"
    },
    {
      "constant": true,
      "inputs": [],
      "name": "winnerName",
      "outputs": [
        {
          "internalType": "bytes32",
          "name": "winnerName_",
          "type": "bytes32"
        }
      ],
      "payable": false,
      "stateMutability": "view",
      "type": "function"
    }
  ],
  "bytecode": "0x608060405234801561001057600080fd5b506040516104433803806104438339818101604052602081101561003357600080fd5b810190808051604051939291908464010000000082111561005357600080fd5b90830190602082018581111561006857600080fd5b825186602082028301116401000000008211171561008557600080fd5b82525081516020918201928201910280838360005b838110156100b257818101518382015260200161009a565b50505050919091016040525050600080546001600160a01b031916331781559150505b815181101561013757600260405180604001604052808484815181106100f757fe5b60209081029190910181015182526000918101829052835460018181018655948352918190208351600290930201918255919091015190820155016100d5565b50506102fb806101486000396000f3fe608060405234801561001057600080fd5b50600436106100625760003560e01c80630121b93f14610067578063013cf08b146100865780632e4176cf146100bc578063609ff1bd146100e0578063a3ec138d146100fa578063e2ba53f01461013b575b600080fd5b6100846004803603602081101561007d57600080fd5b5035610143565b005b6100a36004803603602081101561009c57600080fd5b50356101d9565b6040805192835260208301919091528051918290030190f35b6100c4610204565b604080516001600160a01b039092168252519081900360200190f35b6100e8610213565b60408051918252519081900360200190f35b6101206004803603602081101561011057600080fd5b50356001600160a01b031661027a565b60408051921515835260208301919091528051918290030190f35b6100e8610299565b336000908152600160205260409020805460ff161561019a576040805162461bcd60e51b815260206004820152600e60248201526d20b63932b0b23c903b37ba32b21760911b604482015290519081900360640190fd5b805460ff19166001908117825581810183905560028054849081106101bb57fe5b60009182526020909120600160029092020101805490910190555050565b600281815481106101e657fe5b60009182526020909120600290910201805460019091015490915082565b6000546001600160a01b031681565b600080805b60025481101561027557816002828154811061023057fe5b906000526020600020906002020160010154111561026d576002818154811061025557fe5b90600052602060002090600202016001015491508092505b600101610218565b505090565b6001602081905260009182526040909120805491015460ff9091169082565b600060026102a5610213565b815481106102af57fe5b90600052602060002090600202016000015490509056fea265627a7a723158207c20a65843759f1c993580c525733c6080deada4859d9b014815999c496e886364736f6c63430005100032",
  "source": "// SPDX-License-Identifier: GPL-3.0\npragma solidity >=0.5.16 <0.6.0;\n\ncontract Ballot {\n    struct Voter {\n        bool voted;  // if true, that person already voted\n        uint vote;   // index of the voted proposal\n    }\n\n    struct Proposal {\n        bytes32 name;   // short name (up to 32 bytes)\n        uint voteCount; // number of accumulated votes\n    }\n\n    address public chairperson;\n\n    mapping(address => Voter) public voters;\n    Proposal[] public proposals;\n\n    constructor(bytes32[] memory proposalNames) public {\n        chairperson = msg.sender;\n\n        for (uint i = 0; i < proposalNames.length; i++) {\n            proposals.push(Proposal({\n                name: proposalNames[i],\n                voteCount: 0\n            }));\n        }\n    }\n\n    function vote(uint proposal) public {\n        Voter storage sender = voters[msg.sender];\n        require(!sender.voted, \"Already voted.\");\n        sender.voted = true;\n        sender.vote = proposal;\n\n        proposals[proposal].voteCount += 1;\n    }\n\n    function winningProposal() public view\n        returns (uint winningProposal_)\n    {\n        uint winningVoteCount = 0;\n        for (uint p = 0; p < proposals.length; p++) {\n            if (proposals[p].voteCount > winningVoteCount) {\n                winningVoteCount = proposals[p].voteCount;\n                winningProposal_ = p;\n            }\n        }\n    }\n\n    function winnerName() public view\n        returns (bytes32 winnerName_)\n    {\n        winnerName_ = proposals[winningProposal()].name;\n    }\n}\n\n",
  "sourcePath": "/home/bruno/eth_voting/contracts/MyElection.sol",
  "compiler": {
    "name": "solc",
    "version": "0.5.16+commit.9c3226ce.Emscripten.clang"
  },
  "schemaVersion": "3.4.16",
  "updatedAt": "2023-09-20T13:20:10.652Z",
  "networkType": "ethereum",
  "devdoc": {
    "methods": {}
  },
  "userdoc": {
    "methods": {}
  }
}